00100000         2166944650001200009731870126       01633000000007151070FUNDACAO DE ENSINO DE CONTAGEMBANCO DO BRASIL S/A                     11505202400000000177900000000                                                                     
00100011C9803031 2166944650001200009731870126       01633000000007151070FUNDACAO DE ENSINO DE CONTAGEM                                                                                                                                          
0010001300001A0000180330348800000010228855 ELIZABETH ABRAAO BARRETO                          15052024BRL000000000000000000000000013572                    00000000000000000000000                                                    0          
0010001300002B   100003351072651                                                                                               15052024000000000000000000000000000000000000000000000000000000000000000000000000000               0      00000000
0010001300003A0000183410116000000000006365 GABRIEL LUIZ DE BARCELOS                          15052024BRL000000000000000000000000016269                    00000000000000000000000                                                    0          
0010001300004B   100031881483649                                                                                               15052024000000000000000000000000000000000000000000000000000000000000000000000000000               0      00000000
0010001300005A0000183410662600000000194895 JAMIL ALVES PIMENTA                               15052024BRL000000000000000000000000016269                    00000000000000000000000                                                    0          
0010001300006B   100054250340678                                                                                               15052024000000000000000000000000000000000000000000000000000000000000000000000000000               0      00000000
0010001300007A0000180330348800000010038599 JARBAS JOANES DOS SANTOS                          15052024BRL000000000000000000000000013572                    00000000000000000000000                                                    0          
0010001300008B   100037349376634                                                                                               15052024000000000000000000000000000000000000000000000000000000000000000000000000000               0      00000000
0010001300009A0000182370288700000000215902 VINICIUS DINIZ SOUZA BARCELOS                     15052024BRL000000000000000000000000016269                    00000000000000000000000                                                    0          
0010001300010B   100001558087613                                                                                               15052024000000000000000000000000000000000000000000000000000000000000000000000000000               0      00000000
0010001300011A0000183410693800000000389837 ABELARDO AMBROSIO JUNIOR                          15052024BRL000000000000000000000000026100                    00000000000000000000000                                                    0          
0010001300012B   100072783079615                                                                                               15052024000000000000000000000000000000000000000000000000000000000000000000000000000               0      00000000
0010001300013A0000183410563600000000011313 ABIAS FERNANDES DOS SANTOS                        15052024BRL000000000000000000000000013050                    00000000000000000000000                                                    0          
0010001300014B   100075317265649                                                                                               15052024000000000000000000000000000000000000000000000000000000000000000000000000000               0      00000000
0010001300015A0000182600000010000479639565 CINTIA COSTA GONCALVES                            15052024BRL000000000000000000000000013572                    00000000000000000000000                                                    0          
0010001300016B   100005413386680                                                                                               15052024000000000000000000000000000000000000000000000000000000000000000000000000000               0      00000000
0010001300017A0000183410563600000000652652 DARLISSON RIBEIRO DA SILVA                        15052024BRL000000000000000000000000013572                    00000000000000000000000                                                    0          
0010001300018B   100006124200600                                                                                               15052024000000000000000000000000000000000000000000000000000000000000000000000000000               0      00000000
0010001300019A0000183410563600000000626375 EMMERSON MARTINS NETTO                            15052024BRL000000000000000000000000013572                    00000000000000000000000                                                    0          
0010001300020B   100093750099634                                                                                               15052024000000000000000000000000000000000000000000000000000000000000000000000000000               0      00000000
0010001300021A0000183410543500000000382808 FLAVIA ADRIANA DE PAULA                           15052024BRL000000000000000000000000013572                    00000000000000000000000                                                    0          
0010001300022B   100007954197670                                                                                               15052024000000000000000000000000000000000000000000000000000000000000000000000000000               0      00000000
0010001300023A0000182370252240000000160512 FLAVIA BAECA PEREIRA                              15052024BRL000000000000000000000000013572                    00000000000000000000000                                                    0          
0010001300024B   100007402052699                                                                                               15052024000000000000000000000000000000000000000000000000000000000000000000000000000               0      00000000
0010001300025A0000183410139900000000792892 GERALDA RAIMUNDA LOPES OLIVEIR                    15052024BRL000000000000000000000000013572                    00000000000000000000000                                                    0          
0010001300026B   100087741580663                                                                                               15052024000000000000000000000000000000000000000000000000000000000000000000000000000               0      00000000
0010001300027A0000180330348800000020068551 GRAZIELLE ELAINE AMARAL DA SIL                    15052024BRL000000000000000000000000013572                    00000000000000000000000                                                    0          
0010001300028B   100003590195606                                                                                               15052024000000000000000000000000000000000000000000000000000000000000000000000000000               0      00000000
0010001300029A0000183410985700000000020318 JANAINA AMARAL PEREIRA DA SILV                    15052024BRL000000000000000000000000013572                    00000000000000000000000                                                    0          
0010001300030B   100008172327617                                                                                               15052024000000000000000000000000000000000000000000000000000000000000000000000000000               0      00000000
0010001300031A0000183800000100000609984470 KENIA CAROLINA DE FATIMA MEIRA                    15052024BRL000000000000000000000000013572                    00000000000000000000000                                                    0          
0010001300032B   100008615182680                                                                                               15052024000000000000000000000000000000000000000000000000000000000000000000000000000               0      00000000
0010001300033A0000182600000100000068352880 LUIZ FELIPE OLIVEIRA DE ALMEID                    15052024BRL000000000000000000000000013572                    00000000000000000000000                                                    0          
0010001300034B   100013378637692                                                                                               15052024000000000000000000000000000000000000000000000000000000000000000000000000000               0      00000000
0010001300035A0000182600000100000545605810 POLIANA SENA ROCHA                                15052024BRL000000000000000000000000013572                    00000000000000000000000                                                    0          
0010001300036B   100008841362642                                                                                               15052024000000000000000000000000000000000000000000000000000000000000000000000000000               0      00000000
0010001300037A0000183410453500000000408043 RAFAELA DOS SANTOS FERNANDES                      15052024BRL000000000000000000000000013572                    00000000000000000000000                                                    0          
0010001300038B   100010032643608                                                                                               15052024000000000000000000000000000000000000000000000000000000000000000000000000000               0      00000000
0010001300039A0000183410311600000000269592 RAQUEL DE FATIMA GONCALVES                        15052024BRL000000000000000000000000013572                    00000000000000000000000                                                    0          
0010001300040B   100085180475600                                                                                               15052024000000000000000000000000000000000000000000000000000000000000000000000000000               0      00000000
0010001300041A0000183410744300000000488700 RISOLETA DOMNGOS DA SILVA                         15052024BRL000000000000000000000000013572                    00000000000000000000000                                                    0          
0010001300042B   100088373320687                                                                                               15052024000000000000000000000000000000000000000000000000000000000000000000000000000               0      00000000
0010001300043A0000183410139900000000770849 ROMILDA PEREIRA TEIXEIRA                          15052024BRL000000000000000000000000013572                    00000000000000000000000                                                    0          
0010001300044B   100095276181691                                                                                               15052024000000000000000000000000000000000000000000000000000000000000000000000000000               0      00000000
0010001300045A0000180330424000000010639504 SHIRLEY CHAVES                                    15052024BRL000000000000000000000000013572                    00000000000000000000000                                                    0          
0010001300046B   100003913980679                                                                                               15052024000000000000000000000000000000000000000000000000000000000000000000000000000               0      00000000
0010001300047A0000182370221200000000873829 SIMONE DE ALENCAR COSTA FREITA                    15052024BRL000000000000000000000000013572                    00000000000000000000000                                                    0          
0010001300048B   100000825142679                                                                                               15052024000000000000000000000000000000000000000000000000000000000000000000000000000               0      00000000
0010001300049A0000183410139900000000629185 VANILDA CRISTINA TORRES TEIXEI                    15052024BRL000000000000000000000000013572                    00000000000000000000000                                                    0          
0010001300050B   100003012755640                                                                                               15052024000000000000000000000000000000000000000000000000000000000000000000000000000               0      00000000
0010001300051A0000180330348800000010650027 ANA LUCIA DE JESUS CLEMENTE                       15052024BRL000000000000000000000000013572                    00000000000000000000000                                                    0          
0010001300052B   100004365439669                                                                                               15052024000000000000000000000000000000000000000000000000000000000000000000000000000               0      00000000
0010001300053A0000180330297300000020279997 CRISLEY GOMES DA SILVA SOUZA                      15052024BRL000000000000000000000000013572                    00000000000000000000000                                                    0          
0010001300054B   100010334535603                                                                                               15052024000000000000000000000000000000000000000000000000000000000000000000000000000               0      00000000
0010001300055A0000180330348800000020231609 DAVI RANGEL NUNES                                 15052024BRL000000000000000000000000013572                    00000000000000000000000                                                    0          
0010001300056B   100014835376684                                                                                               15052024000000000000000000000000000000000000000000000000000000000000000000000000000               0      00000000
0010001300057A0000183410450800000000404037 IDELVANIA APARECIDA RANGEL CAR                    15052024BRL000000000000000000000000013572                    00000000000000000000000                                                    0          
0010001300058B   100068623526600                                                                                               15052024000000000000000000000000000000000000000000000000000000000000000000000000000               0      00000000
0010001300059A0000182600000100000983624400 PEDRO GABRIEL EVANGELISTA MARQ                    15052024BRL000000000000000000000000013572                    00000000000000000000000                                                    0          
0010001300060B   100010824750683                                                                                               15052024000000000000000000000000000000000000000000000000000000000000000000000000000               0      00000000
0010001300061A0000183410139900000000887817 PEDRO HENRIQUE DE OLIVEIRA                        15052024BRL000000000000000000000000013572                    00000000000000000000000                                                    0          
0010001300062B   100012130021689                                                                                               15052024000000000000000000000000000000000000000000000000000000000000000000000000000               0      00000000
0010001300063A0000183180008900000063946915 RAFAEL FRANCISCO OLIVEIRA                         15052024BRL000000000000000000000000013572                    00000000000000000000000                                                    0          
0010001300064B   100012128257646                                                                                               15052024000000000000000000000000000000000000000000000000000000000000000000000000000               0      00000000
0010001300065A0000180330348800000010079060 SEBASTIANA RANGEL FERREIRA NUN                    15052024BRL000000000000000000000000026100                    00000000000000000000000                                                    0          
0010001300066B   100056177704620                                                                                               15052024000000000000000000000000000000000000000000000000000000000000000000000000000               0      00000000
0010001300067A0000183410693800000000427033 AMANDA DE OLIVEIRA REIS                           15052024BRL000000000000000000000000013572                    00000000000000000000000                                                    0          
0010001300068B   100013560162602                                                                                               15052024000000000000000000000000000000000000000000000000000000000000000000000000000               0      00000000
0010001300069A0000183410693800000000365902 ANA CLARA MOREIRA PASSOS DOS S                    15052024BRL000000000000000000000000013572                    00000000000000000000000                                                    0          
0010001300070B   100002210634636                                                                                               15052024000000000000000000000000000000000000000000000000000000000000000000000000000               0      00000000
0010001300071A0000181040294000008692677777 BRUNO HENRIQUE LOPES SILVA                        15052024BRL000000000000000000000000013572                    00000000000000000000000                                                    0          
0010001300072B   100014530594661                                                                                               15052024000000000000000000000000000000000000000000000000000000000000000000000000000               0      00000000
0010001300073A0000182600000010000490860831 CAMILA LUIZA RIBEIRO REIS                         15052024BRL000000000000000000000000013572                    00000000000000000000000                                                    0          
0010001300074B   100013189170690                                                                                               15052024000000000000000000000000000000000000000000000000000000000000000000000000000               0      00000000
0010001300075A0000183410303900000000196146 CATIA REGINA SERAPIAO DO PRADO                    15052024BRL000000000000000000000000026100                    00000000000000000000000                                                    0          
0010001300076B   100081414790678                                                                                               15052024000000000000000000000000000000000000000000000000000000000000000000000000000               0      00000000
0010001300077A0000180330348800000010207492 CLAUDIO TORRES DA SILVA                           15052024BRL000000000000000000000000013050                    00000000000000000000000                                                    0          
0010001300078B   100087601710653                                                                                               15052024000000000000000000000000000000000000000000000000000000000000000000000000000               0      00000000
0010001300079A0000181040008100008258413420 FILIPE ALVES SIMEAO                               15052024BRL000000000000000000000000026100                    00000000000000000000000                                                    0          
0010001300080B   100008340925652                                                                                               15052024000000000000000000000000000000000000000000000000000000000000000000000000000               0      00000000
0010001300081A0000182600000010000199689453 FRANCIELE STEFANY DARCK DIAS                      15052024BRL000000000000000000000000013572                    00000000000000000000000                                                    0          
0010001300082B   100001784437603                                                                                               15052024000000000000000000000000000000000000000000000000000000000000000000000000000               0      00000000
0010001300083A0000182600000010000356301237 INDYARA DIAS ARAUJO DINIZ                         15052024BRL000000000000000000000000013572                    00000000000000000000000                                                    0          
0010001300084B   100070257381660                                                                                               15052024000000000000000000000000000000000000000000000000000000000000000000000000000               0      00000000
0010001300085A0000182600000100000009515420 JESSICA DREAM BARBOSA RODRIGUE                    15052024BRL000000000000000000000000013572                    00000000000000000000000                                                    0          
0010001300086B   100012908272652                                                                                               15052024000000000000000000000000000000000000000000000000000000000000000000000000000               0      00000000
0010001300087A0000180770000100000093016778 JULIE DANIELLE VIANA BARBOSA                      15052024BRL000000000000000000000000013572                    00000000000000000000000                                                    0          
0010001300088B   100013512473601                                                                                               15052024000000000000000000000000000000000000000000000000000000000000000000000000000               0      00000000
0010001300089A0000180330348800000010894289 JUNIA CRISTINA RIBEIRO DE ALCA                    15052024BRL000000000000000000000000013572                    00000000000000000000000                                                    0          
0010001300090B   100001786906600                                                                                               15052024000000000000000000000000000000000000000000000000000000000000000000000000000               0      00000000
0010001300091A0000183410563600000000703349 KARINA FRANCIELE DIAS DA SILVA                    15052024BRL000000000000000000000000013572                    00000000000000000000000                                                    0          
0010001300092B   100011124968660                                                                                               15052024000000000000000000000000000000000000000000000000000000000000000000000000000               0      00000000
0010001300093A0000182600000100000132533514 MARCIO JUNIO SANTOS SIMOES                        15052024BRL000000000000000000000000013572                    00000000000000000000000                                                    0          
0010001300094B   100011473815690                                                                                               15052024000000000000000000000000000000000000000000000000000000000000000000000000000               0      00000000
0010001300095A0000183800000100000601145410 MARIA LUIZA TREVENZOLI PIRES                      15052024BRL000000000000000000000000013572                    00000000000000000000000                                                    0          
0010001300096B   100015127902656                                                                                               15052024000000000000000000000000000000000000000000000000000000000000000000000000000               0      00000000
0010001300097A0000183410693800000000418495 MICHELLE LUCIA ALVES                              15052024BRL000000000000000000000000013572                    00000000000000000000000                                                    0          
0010001300098B   100004542537617                                                                                               15052024000000000000000000000000000000000000000000000000000000000000000000000000000               0      00000000
0010001300099A0000180770000100000108857093 MIRIAM RIBEIRO DOS SANTOS                         15052024BRL000000000000000000000000013572                    00000000000000000000000                                                    0          
0010001300100B   100010575083654                                                                                               15052024000000000000000000000000000000000000000000000000000000000000000000000000000               0      00000000
0010001300101A0000181040000940005989767257 OBERDAM ALENCAR VIEIRA GOMES                      15052024BRL000000000000000000000000013572                    00000000000000000000000                                                    0          
0010001300102B   100008866101680                                                                                               15052024000000000000000000000000000000000000000000000000000000000000000000000000000               0      00000000
0010001300103A0000187350065500000188586580 PAMELA VITORIA DE PAULA DIAS                      15052024BRL000000000000000000000000013050                    00000000000000000000000                                                    0          
0010001300104B   100015050422671                                                                                               15052024000000000000000000000000000000000000000000000000000000000000000000000000000               0      00000000
0010001300105A0000180770000100000023994983 PEDRO ERIVALDO DA SILVA                           15052024BRL000000000000000000000000013572                    00000000000000000000000                                                    0          
0010001300106B   100007597434600                                                                                               15052024000000000000000000000000000000000000000000000000000000000000000000000000000               0      00000000
0010001300107A0000180330208200000010571833 SONIA LUCIA SERAPIAO                              15052024BRL000000000000000000000000013572                    00000000000000000000000                                                    0          
0010001300108B   100072099194653                                                                                               15052024000000000000000000000000000000000000000000000000000000000000000000000000000               0      00000000
0010001300109A0000182600000100000107428462 THAISSA SQUARCIO SILVA                            15052024BRL000000000000000000000000013572                    00000000000000000000000                                                    0          
0010001300110B   100015678832654                                                                                               15052024000000000000000000000000000000000000000000000000000000000000000000000000000               0      00000000
0010001300111A0000182600000100000055919538 WESLEY SANTOS PEREGRINO                           15052024BRL000000000000000000000000013572                    00000000000000000000000                                                    0          
0010001300112B   100014211958798                                                                                               15052024000000000000000000000000000000000000000000000000000000000000000000000000000               0      00000000
0010001300113A0000182370294500000010009359 ANA CLARA PADILHA DINIZ                           15052024BRL000000000000000000000000013572                    00000000000000000000000                                                    0          
0010001300114B   100002252964626                                                                                               15052024000000000000000000000000000000000000000000000000000000000000000000000000000               0      00000000
0010001300115A0000183410563600000000710872 CACIANO AUGUSTO LELES OLIVEIRA                    15052024BRL000000000000000000000000013050                    00000000000000000000000                                                    0          
0010001300116B   100013432902603                                                                                               15052024000000000000000000000000000000000000000000000000000000000000000000000000000               0      00000000
0010001300117A0000180330348800000010194259 CLEONICE LELES OLIVEIRA                           15052024BRL000000000000000000000000026100                    00000000000000000000000                                                    0          
0010001300118B   100086788680663                                                                                               15052024000000000000000000000000000000000000000000000000000000000000000000000000000               0      00000000
0010001300119A0000183410563600000000733643 DENISE APARECIDA VIEIRA GONCAL                    15052024BRL000000000000000000000000013050                    00000000000000000000000                                                    0          
0010001300120B   100004251071670                                                                                               15052024000000000000000000000000000000000000000000000000000000000000000000000000000               0      00000000
0010001300121A0000180330348800000010241681 ELIZABETE DE OLIVEIRA GONCALVE                    15052024BRL000000000000000000000000013572                    00000000000000000000000                                                    0          
0010001300122B   100075663635653                                                                                               15052024000000000000000000000000000000000000000000000000000000000000000000000000000               0      00000000
0010001300123A0000182600000010000058671033 FABIANA DE FREITAS SANTANA                        15052024BRL000000000000000000000000013572                    00000000000000000000000                                                    0          
0010001300124B   100013443102654                                                                                               15052024000000000000000000000000000000000000000000000000000000000000000000000000000               0      00000000
0010001300125A0000180770000100000224361422 GIZELE SILVA CARDOSO                              15052024BRL000000000000000000000000013572                    00000000000000000000000                                                    0          
0010001300126B   100005945085685                                                                                               15052024000000000000000000000000000000000000000000000000000000000000000000000000000               0      00000000
0010001300127A0000180330348800000010798561 HERONILDE KELLY DE CARVALHO LA                    15052024BRL000000000000000000000000013572                    00000000000000000000000                                                    0          
0010001300128B   100099052113653                                                                                               15052024000000000000000000000000000000000000000000000000000000000000000000000000000               0      00000000
0010001300129A0000180330348800000037534975 JACIARA LOPES DE ALMEIDA VEIGA                    15052024BRL000000000000000000000000013572                    00000000000000000000000                                                    0          
0010001300130B   100000969951655                                                                                               15052024000000000000000000000000000000000000000000000000000000000000000000000000000               0      00000000
0010001300131A0000180330424000000010806766 JESSICA THAIANE COELHO DOS REI                    15052024BRL000000000000000000000000013572                    00000000000000000000000                                                    0          
0010001300132B   100010376102616                                                                                               15052024000000000000000000000000000000000000000000000000000000000000000000000000000               0      00000000
0010001300133A0000182600000010000600968464 JOAO PAULO DA CRUZ                                15052024BRL000000000000000000000000013572                    00000000000000000000000                                                    0          
0010001300134B   100010822991624                                                                                               15052024000000000000000000000000000000000000000000000000000000000000000000000000000               0      00000000
0010001300135A0000183410659000000000220155 JOAO VITOR CHAGAS LOBO                            15052024BRL000000000000000000000000013572                    00000000000000000000000                                                    0          
0010001300136B   100014037902648                                                                                               15052024000000000000000000000000000000000000000000000000000000000000000000000000000               0      00000000
0010001300137A0000180770000010000128425040 LAURA SILVA BATISTA                               15052024BRL000000000000000000000000013572                    00000000000000000000000                                                    0          
0010001300138B   100007934272669                                                                                               15052024000000000000000000000000000000000000000000000000000000000000000000000000000               0      00000000
0010001300139A0000180330208200000010634497 LUANA THAYS SOARES PEREIRA                        15052024BRL000000000000000000000000013572                    00000000000000000000000                                                    0          
0010001300140B   100070029543690                                                                                               15052024000000000000000000000000000000000000000000000000000000000000000000000000000               0      00000000
0010001300141A0000182600000010000028102714 LUCIANA GOMES DUARTE WERNECK                      15052024BRL000000000000000000000000013572                    00000000000000000000000                                                    0          
0010001300142B   100091339936615                                                                                               15052024000000000000000000000000000000000000000000000000000000000000000000000000000               0      00000000
0010001300143A0000182600000010000873162066 MAIRA SILVA DOS REIS                              15052024BRL000000000000000000000000013572                    00000000000000000000000                                                    0          
0010001300144B   100012726705626                                                                                               15052024000000000000000000000000000000000000000000000000000000000000000000000000000               0      00000000
0010001300145A0000180330348800000010180342 MARCILANE TEODORO                                 15052024BRL000000000000000000000000013572                    00000000000000000000000                                                    0          
0010001300146B   100000825316685                                                                                               15052024000000000000000000000000000000000000000000000000000000000000000000000000000               0      00000000
0010001300147A0000182600000100000116067968 MARIA HELOISA DE FREITAS SANTO                    15052024BRL000000000000000000000000013572                    00000000000000000000000                                                    0          
0010001300148B   100016671778698                                                                                               15052024000000000000000000000000000000000000000000000000000000000000000000000000000               0      00000000
0010001300149A0000180330208200000010187139 PAULA GRACIANE JORY NETTO                         15052024BRL000000000000000000000000013572                    00000000000000000000000                                                    0          
0010001300150B   100005315162613                                                                                               15052024000000000000000000000000000000000000000000000000000000000000000000000000000               0      00000000
0010001300151A0000180770000100000151978298 RAISSA CAROLINA VEIGA                             15052024BRL000000000000000000000000013572                    00000000000000000000000                                                    0          
0010001300152B   100014089088674                                                                                               15052024000000000000000000000000000000000000000000000000000000000000000000000000000               0      00000000
0010001300153A0000180770000100000069685550 RARISSON ASSIS GONCALVES                          15052024BRL000000000000000000000000013572                    00000000000000000000000                                                    0          
0010001300154B   100012258090610                                                                                               15052024000000000000000000000000000000000000000000000000000000000000000000000000000               0      00000000
0010001300155A0000180330424000000010806797 RAYANNE EMILY MEDEIROS ROCHA                      15052024BRL000000000000000000000000013572                    00000000000000000000000                                                    0          
0010001300156B   100009469130642                                                                                               15052024000000000000000000000000000000000000000000000000000000000000000000000000000               0      00000000
0010001300157A0000180770000100000075773708 RODOLFO NATANAEL DE SOUZA                         15052024BRL000000000000000000000000013572                    00000000000000000000000                                                    0          
0010001300158B   100011064949622                                                                                               15052024000000000000000000000000000000000000000000000000000000000000000000000000000               0      00000000
0010001300159A0000180330348800000020100415 RODRIGO BRAGA BATISTA                             15052024BRL000000000000000000000000013572                    00000000000000000000000                                                    0          
0010001300160B   100070063321688                                                                                               15052024000000000000000000000000000000000000000000000000000000000000000000000000000               0      00000000
0010001300161A0000180330348800000010314529 ROSILENE MONTEIRO DOS SANTOS C                    15052024BRL000000000000000000000000026100                    00000000000000000000000                                                    0          
0010001300162B   100085702471687                                                                                               15052024000000000000000000000000000000000000000000000000000000000000000000000000000               0      00000000
0010001300163A0000180330348800000010291772 SELMA HELENA SILVA                                15052024BRL000000000000000000000000013050                    00000000000000000000000                                                    0          
0010001300164B   100069613672672                                                                                               15052024000000000000000000000000000000000000000000000000000000000000000000000000000               0      00000000
0010001300165A0000183410696000000000419767 SIMONE GORETH DA SILVA BATISTA                    15052024BRL000000000000000000000000013572                    00000000000000000000000                                                    0          
0010001300166B   100099404575615                                                                                               15052024000000000000000000000000000000000000000000000000000000000000000000000000000               0      00000000
0010001300167A0000182600000100000081083291 STEPHANIE MONTEIRO COSTA                          15052024BRL000000000000000000000000013572                    00000000000000000000000                                                    0          
0010001300168B   100013204406652                                                                                               15052024000000000000000000000000000000000000000000000000000000000000000000000000000               0      00000000
0010001300169A0000180770000100000151254524 THAUANE JULIANA VEIGA                             15052024BRL000000000000000000000000013572                    00000000000000000000000                                                    0          
0010001300170B   100010293319600                                                                                               15052024000000000000000000000000000000000000000000000000000000000000000000000000000               0      00000000
0010001300171A0000180330417700000010570976 VALERIA DOS SANTOS LIMA                           15052024BRL000000000000000000000000013572                    00000000000000000000000                                                    0          
0010001300172B   100003732083675                                                                                               15052024000000000000000000000000000000000000000000000000000000000000000000000000000               0      00000000
0010001300173A0000182370185540000000482897 VICTORIA DE JESUS SOUZA KALIL                     15052024BRL000000000000000000000000013572                    00000000000000000000000                                                    0          
0010001300174B   100002079865501                                                                                               15052024000000000000000000000000000000000000000000000000000000000000000000000000000               0      00000000
0010001300175A0000182370214600000004611667 WENDERSON ISRAEL TEIXEIRA                         15052024BRL000000000000000000000000013572                    00000000000000000000000                                                    0          
0010001300176B   100004118821630                                                                                               15052024000000000000000000000000000000000000000000000000000000000000000000000000000               0      00000000
0010001300177A0000180330348800000010859381 ANA CLARA SOARES MACHADO                          15052024BRL000000000000000000000000013572                    00000000000000000000000                                                    0          
0010001300178B   100070002139650                                                                                               15052024000000000000000000000000000000000000000000000000000000000000000000000000000               0      00000000
0010001300179A0000180330348800000010560373 BARBARA STEPHANE ARAUJO SILVA                     15052024BRL000000000000000000000000013572                    00000000000000000000000                                                    0          
0010001300180B   100012380251614                                                                                               15052024000000000000000000000000000000000000000000000000000000000000000000000000000               0      00000000
0010001300181A0000183890065000000010175315 CRISTINA APARECIDA SOARES                         15052024BRL000000000000000000000000013572                    00000000000000000000000                                                    0          
0010001300182B   100077493575649                                                                                               15052024000000000000000000000000000000000000000000000000000000000000000000000000000               0      00000000
0010001300183A0000180770000100000045415366 DAIANE SOARES DE OLIVEIRA                         15052024BRL000000000000000000000000013572                    00000000000000000000000                                                    0          
0010001300184B   100009716897685                                                                                               15052024000000000000000000000000000000000000000000000000000000000000000000000000000               0      00000000
0010001300185A0000183410744300000000357780 ELIANE ARAUJO DA SILVA ALMEIDA                    15052024BRL000000000000000000000000013572                    00000000000000000000000                                                    0          
0010001300186B   100004565439611                                                                                               15052024000000000000000000000000000000000000000000000000000000000000000000000000000               0      00000000
0010001300187A0000180330348800000010253493 ELIDA MARIA CANDIDO                               15052024BRL000000000000000000000000013572                    00000000000000000000000                                                    0          
0010001300188B   100068366531600                                                                                               15052024000000000000000000000000000000000000000000000000000000000000000000000000000               0      00000000
0010001300189A0000180330348800000010548672 GLEICYMARA DE CASTRO REZENDE                      15052024BRL000000000000000000000000013572                    00000000000000000000000                                                    0          
0010001300190B   100011497179637                                                                                               15052024000000000000000000000000000000000000000000000000000000000000000000000000000               0      00000000
0010001300191A0000183410563600000000650953 HELEN CAROLINE DA SILVA FRAGA                     15052024BRL000000000000000000000000013572                    00000000000000000000000                                                    0          
0010001300192B   100007756875613                                                                                               15052024000000000000000000000000000000000000000000000000000000000000000000000000000               0      00000000
0010001300193A0000182600000100000542355362 ISRAEL CALEBE SANTANA                             15052024BRL000000000000000000000000013572                    00000000000000000000000                                                    0          
0010001300194B   100002167090676                                                                                               15052024000000000000000000000000000000000000000000000000000000000000000000000000000               0      00000000
0010001300195A0000180330348800000020112313 JULIA MARIA DE CASTRO REZENDE                     15052024BRL000000000000000000000000013572                    00000000000000000000000                                                    0          
0010001300196B   100001834640601                                                                                               15052024000000000000000000000000000000000000000000000000000000000000000000000000000               0      00000000
0010001300197A0000182600000100000565342800 JUSCELIO RODRIGUES DE ASSIS                       15052024BRL000000000000000000000000013572                    00000000000000000000000                                                    0          
0010001300198B   100006587189679                                                                                               15052024000000000000000000000000000000000000000000000000000000000000000000000000000               0      00000000
0010001300199A0000183410563600000000727306 KARINE JESSICA SANTANA                            15052024BRL000000000000000000000000026100                    00000000000000000000000                                                    0          
0010001300200B   100013481361629                                                                                               15052024000000000000000000000000000000000000000000000000000000000000000000000000000               0      00000000
0010001300201A0000183410303900000000324060 KARLA CRISTINA DA CUNHA DI BLA                    15052024BRL000000000000000000000000013572                    00000000000000000000000                                                    0          
0010001300202B   100009378655670                                                                                               15052024000000000000000000000000000000000000000000000000000000000000000000000000000               0      00000000
0010001300203A0000182600000100000783639879 KATIA NUNES DIAS                                  15052024BRL000000000000000000000000013572                    00000000000000000000000                                                    0          
0010001300204B   100014500339620                                                                                               15052024000000000000000000000000000000000000000000000000000000000000000000000000000               0      00000000
0010001300205A0000183410158300000000225683 LUCIENE APARECIDA DA SILVA                        15052024BRL000000000000000000000000013050                    00000000000000000000000                                                    0          
0010001300206B   100001566412676                                                                                               15052024000000000000000000000000000000000000000000000000000000000000000000000000000               0      00000000
0010001300207A0000180330348800000010135531 MARIA SOLANGE MONTEIRO                            15052024BRL000000000000000000000000013572                    00000000000000000000000                                                    0          
0010001300208B   100078336406620                                                                                               15052024000000000000000000000000000000000000000000000000000000000000000000000000000               0      00000000
0010001300209A0000182600000100000871504523 MARIANA VALVERDE GOMES                            15052024BRL000000000000000000000000013572                    00000000000000000000000                                                    0          
0010001300210B   100014012676610                                                                                               15052024000000000000000000000000000000000000000000000000000000000000000000000000000               0      00000000
0010001300211A0000180770000190000053136055 NAARA CANDIDO DE ANDRADE FARIA                    15052024BRL000000000000000000000000013572                    00000000000000000000000                                                    0          
0010001300212B   100014096868680                                                                                               15052024000000000000000000000000000000000000000000000000000000000000000000000000000               0      00000000
0010001300213A0000180330348800000020278028 PATRICIA LOUISE CORREIA LOPES                     15052024BRL000000000000000000000000013572                    00000000000000000000000                                                    0          
0010001300214B   100003924434654                                                                                               15052024000000000000000000000000000000000000000000000000000000000000000000000000000               0      00000000
0010001300215A0000182600000100000430777826 RENATO JOAQUIM  SANTANA                           15052024BRL000000000000000000000000013050                    00000000000000000000000                                                    0          
0010001300216B   100079314198634                                                                                               15052024000000000000000000000000000000000000000000000000000000000000000000000000000               0      00000000
0010001300217A0000180330348800000010485908 RITA DE CASSIA BRASIL DA SILVA                    15052024BRL000000000000000000000000013572                    00000000000000000000000                                                    0          
0010001300218B   100001290369607                                                                                               15052024000000000000000000000000000000000000000000000000000000000000000000000000000               0      00000000
0010001300219A0000180330348800000010297462 SANDRA HELENA DE SOUZA SANTANA                    15052024BRL000000000000000000000000026100                    00000000000000000000000                                                    0          
0010001300220B   100003523818680                                                                                               15052024000000000000000000000000000000000000000000000000000000000000000000000000000               0      00000000
0010001300221A0000180770000100000107902818 WESLLEY PEREIRA DA SILVA                          15052024BRL000000000000000000000000013572                    00000000000000000000000                                                    0          
0010001300222B   100015964516610                                                                                               15052024000000000000000000000000000000000000000000000000000000000000000000000000000               0      00000000
0010001300223A0000182370221200000000842249 ALESSANDRA BUSTAMANTE DOS SANT                    15052024BRL000000000000000000000000013572                    00000000000000000000000                                                    0          
0010001300224B   100015474272642                                                                                               15052024000000000000000000000000000000000000000000000000000000000000000000000000000               0      00000000
0010001300225A0000180330348800000010285698 ANA MARIA SAMPAIO DOS REIS                        15052024BRL000000000000000000000000013050                    00000000000000000000000                                                    0          
0010001300226B   100066005132687                                                                                               15052024000000000000000000000000000000000000000000000000000000000000000000000000000               0      00000000
0010001300227A0000180330387600000010035036 DENER ELDER PEDROSA                               15052024BRL000000000000000000000000013572                    00000000000000000000000                                                    0          
0010001300228B   100082698457600                                                                                               15052024000000000000000000000000000000000000000000000000000000000000000000000000000               0      00000000
0010001300229A0000180330304900000010120426 EDIRLENE DE CASSIA SOARES QUIN                    15052024BRL000000000000000000000000013572                    00000000000000000000000                                                    0          
0010001300230B   100077921631649                                                                                               15052024000000000000000000000000000000000000000000000000000000000000000000000000000               0      00000000
0010001300231A0000180770000010000236318586 FERNANDA GABRIEL GOMES                            15052024BRL000000000000000000000000013572                    00000000000000000000000                                                    0          
0010001300232B   100015185227699                                                                                               15052024000000000000000000000000000000000000000000000000000000000000000000000000000               0      00000000
0010001300233A0000180770000100000135942098 GISELE DE QUEIROZ LANNA                           15052024BRL000000000000000000000000013572                    00000000000000000000000                                                    0          
0010001300234B   100014092404603                                                                                               15052024000000000000000000000000000000000000000000000000000000000000000000000000000               0      00000000
0010001300235A0000180770000190000195328485 HENRIQUE SOARES QUINTILIANO                       15052024BRL000000000000000000000000013572                    00000000000000000000000                                                    0          
0010001300236B   100013590137681                                                                                               15052024000000000000000000000000000000000000000000000000000000000000000000000000000               0      00000000
0010001300237A0000182600000010000408619411 JOKASTA THAIS CALSAVARA                           15052024BRL000000000000000000000000013572                    00000000000000000000000                                                    0          
0010001300238B   100013169285602                                                                                               15052024000000000000000000000000000000000000000000000000000000000000000000000000000               0      00000000
0010001300239A0000182600000100000305794393 LEANDRO GUSTAVO RODRIGUES OLIV                    15052024BRL000000000000000000000000013572                    00000000000000000000000                                                    0          
0010001300240B   100015728121683                                                                                               15052024000000000000000000000000000000000000000000000000000000000000000000000000000               0      00000000
0010001300241A0000182600000100000994010725 LORENA APARECIDA DE SOUSA AMAR                    15052024BRL000000000000000000000000013572                    00000000000000000000000                                                    0          
0010001300242B   100013196534642                                                                                               15052024000000000000000000000000000000000000000000000000000000000000000000000000000               0      00000000
0010001300243A0000182600000100000060252847 LOURDES MARIA DA SILVA                            15052024BRL000000000000000000000000013572                    00000000000000000000000                                                    0          
0010001300244B   100089834461615                                                                                               15052024000000000000000000000000000000000000000000000000000000000000000000000000000               0      00000000
0010001300245A0000180770000100000155345834 MARCELA APARECIDA AMARAL CAMAR                    15052024BRL000000000000000000000000013572                    00000000000000000000000                                                    0          
0010001300246B   100014408192627                                                                                               15052024000000000000000000000000000000000000000000000000000000000000000000000000000               0      00000000
0010001300247A0000183230000010021244374405 NAYARA ARIANA PEDROSA REZENDE                     15052024BRL000000000000000000000000013572                    00000000000000000000000                                                    0          
0010001300248B   100001411149670                                                                                               15052024000000000000000000000000000000000000000000000000000000000000000000000000000               0      00000000
0010001300249A0000182600000010000919477044 NAYARA ESHILEY ALVARENGA DE AL                    15052024BRL000000000000000000000000013572                    00000000000000000000000                                                    0          
0010001300250B   100013494733678                                                                                               15052024000000000000000000000000000000000000000000000000000000000000000000000000000               0      00000000
0010001300251A0000180330188900000010012707 PEDRO HENRIQUE SANTIAGO DE MOR                    15052024BRL000000000000000000000000013572                    00000000000000000000000                                                    0          
0010001300252B   100002249012652                                                                                               15052024000000000000000000000000000000000000000000000000000000000000000000000000000               0      00000000
0010001300253A0000180330296800000030054135 PRICILA DAS GRACAS SILVA                          15052024BRL000000000000000000000000013572                    00000000000000000000000                                                    0          
0010001300254B   100008453889678                                                                                               15052024000000000000000000000000000000000000000000000000000000000000000000000000000               0      00000000
0010001300255A0000182370343200000002608332 TANIA DE SOUZA CARVALHO                           15052024BRL000000000000000000000000013572                    00000000000000000000000                                                    0          
0010001300256B   100062783904691                                                                                               15052024000000000000000000000000000000000000000000000000000000000000000000000000000               0      00000000
0010001300257A0000183230000001058160230977 VIVIANE JANAINA FAUSTINO DE AS                    15052024BRL000000000000000000000000013572                    00000000000000000000000                                                    0          
0010001300258B   100006782910632                                                                                               15052024000000000000000000000000000000000000000000000000000000000000000000000000000               0      00000000
0010001300259A0000180330348800000010200110 WALDETHE MARIA DAS DORES PEREI                    15052024BRL000000000000000000000000013572                    00000000000000000000000                                                    0          
0010001300260B   100075256762672                                                                                               15052024000000000000000000000000000000000000000000000000000000000000000000000000000               0      00000000
0010001300261A0000182370121800000000081868 ADER JUNIO REIS MARTA                             15052024BRL000000000000000000000000013572                    00000000000000000000000                                                    0          
0010001300262B   100008452798660                                                                                               15052024000000000000000000000000000000000000000000000000000000000000000000000000000               0      00000000
0010001300263A0000182600000100000759747358 ANDREZA JULIANE FELIX DURAES D                    15052024BRL000000000000000000000000013572                    00000000000000000000000                                                    0          
0010001300264B   100007292006639                                                                                               15052024000000000000000000000000000000000000000000000000000000000000000000000000000               0      00000000
0010001300265A0000182600000010000150615719 CAMILA ALMEIDA CAMPOS                             15052024BRL000000000000000000000000013572                    00000000000000000000000                                                    0          
0010001300266B   100007653783619                                                                                               15052024000000000000000000000000000000000000000000000000000000000000000000000000000               0      00000000
0010001300267A0000182370120300000000152935 CESAR LUIS MOREIRA ESQUARCIO                      15052024BRL000000000000000000000000013572                    00000000000000000000000                                                    0          
0010001300268B   100006283090664                                                                                               15052024000000000000000000000000000000000000000000000000000000000000000000000000000               0      00000000
0010001300269A0000180770000010000321765974 EDUARDA CARVALHO DE SOUZA                         15052024BRL000000000000000000000000013572                    00000000000000000000000                                                    0          
0010001300270B   100002015130640                                                                                               15052024000000000000000000000000000000000000000000000000000000000000000000000000000               0      00000000
0010001300271A0000180330348800000010054452 FABIANA MENEZES TAVARES                           15052024BRL000000000000000000000000013572                    00000000000000000000000                                                    0          
0010001300272B   100001281477680                                                                                               15052024000000000000000000000000000000000000000000000000000000000000000000000000000               0      00000000
0010001300273A0000180330348800000010241454 GILBERTO DA SILVA SOARES                          15052024BRL000000000000000000000000013572                    00000000000000000000000                                                    0          
0010001300274B   100066067561620                                                                                               15052024000000000000000000000000000000000000000000000000000000000000000000000000000               0      00000000
0010001300275A0000182600000010000312779717 GIOVANA GARCIA COSTA                              15052024BRL000000000000000000000000013572                    00000000000000000000000                                                    0          
0010001300276B   100015583373695                                                                                               15052024000000000000000000000000000000000000000000000000000000000000000000000000000               0      00000000
0010001300277A0000180330348800000010647128 HUDSON MALAQUIAS PAREIRA                          15052024BRL000000000000000000000000013572                    00000000000000000000000                                                    0          
0010001300278B   100081787502600                                                                                               15052024000000000000000000000000000000000000000000000000000000000000000000000000000               0      00000000
0010001300279A0000182600000010001300586266 IARA DOS SANTOS SANTIAGO                          15052024BRL000000000000000000000000013572                    00000000000000000000000                                                    0          
0010001300280B   100070380532646                                                                                               15052024000000000000000000000000000000000000000000000000000000000000000000000000000               0      00000000
0010001300281A0000180330348800000010315630 IEDA GONZAGA FERREIRA                             15052024BRL000000000000000000000000013050                    00000000000000000000000                                                    0          
0010001300282B   100070674876687                                                                                               15052024000000000000000000000000000000000000000000000000000000000000000000000000000               0      00000000
0010001300283A0000180330423900000010004786 JOANA D'ARC MOREIRA                               15052024BRL000000000000000000000000026100                    00000000000000000000000                                                    0          
0010001300284B   100070435014668                                                                                               15052024000000000000000000000000000000000000000000000000000000000000000000000000000               0      00000000
0010001300285A0000183410744300000000494096 JOAO BATISTA PIRIS DA LUZ                         15052024BRL000000000000000000000000013050                    00000000000000000000000                                                    0          
0010001300286B   100076215610682                                                                                               15052024000000000000000000000000000000000000000000000000000000000000000000000000000               0      00000000
0010001300287A0000180770000100000130188816 LEILA SILVANA DA SILVA GONCALV                    15052024BRL000000000000000000000000013572                    00000000000000000000000                                                    0          
0010001300288B   100088137368604                                                                                               15052024000000000000000000000000000000000000000000000000000000000000000000000000000               0      00000000
0010001300289A0000180330348800000010103312 LUCIANA CHAVES DA SILVA                           15052024BRL000000000000000000000000013572                    00000000000000000000000                                                    0          
0010001300290B   100005472592631                                                                                               15052024000000000000000000000000000000000000000000000000000000000000000000000000000               0      00000000
0010001300291A0000183410139900000000947595 MARCIA MARIA DE JESUS                             15052024BRL000000000000000000000000013572                    00000000000000000000000                                                    0          
0010001300292B   100003602626601                                                                                               15052024000000000000000000000000000000000000000000000000000000000000000000000000000               0      00000000
0010001300293A0000180770000100000061243620 MARESSA DO CARMO SOARES PARAIS                    15052024BRL000000000000000000000000013572                    00000000000000000000000                                                    0          
0010001300294B   100012576992617                                                                                               15052024000000000000000000000000000000000000000000000000000000000000000000000000000               0      00000000
0010001300295A0000180330348800000010251752 MARIA DA GLORIA DOS REIS TEIXE                    15052024BRL000000000000000000000000013572                    00000000000000000000000                                                    0          
0010001300296B   100078497752600                                                                                               15052024000000000000000000000000000000000000000000000000000000000000000000000000000               0      00000000
0010001300297A0000180330387600000010774339 MATEUS LEITE LOPES                                15052024BRL000000000000000000000000013572                    00000000000000000000000                                                    0          
0010001300298B   100001788473647                                                                                               15052024000000000000000000000000000000000000000000000000000000000000000000000000000               0      00000000
0010001300299A0000182600000100000486279525 PIERA CENA NUNES DE ALMEIDA                       15052024BRL000000000000000000000000013572                    00000000000000000000000                                                    0          
0010001300300B   100009049747663                                                                                               15052024000000000000000000000000000000000000000000000000000000000000000000000000000               0      00000000
0010001300301A0000182600000100000017718314 RENATO DOS SANTOS RIBEIRO                         15052024BRL000000000000000000000000026100                    00000000000000000000000                                                    0          
0010001300302B   100001524484628                                                                                               15052024000000000000000000000000000000000000000000000000000000000000000000000000000               0      00000000
0010001300303A0000181040089300000000301277 ADRIANA DOS SANTOS SILVINO                        15052024BRL000000000000000000000000013572                    00000000000000000000000                                                    0          
0010001300304B   100001084219611                                                                                               15052024000000000000000000000000000000000000000000000000000000000000000000000000000               0      00000000
0010001300305A0000183410158200000000200646 ADRIANA FERNANDES SALDANHA                        15052024BRL000000000000000000000000013572                    00000000000000000000000                                                    0          
0010001300306B   100059236035604                                                                                               15052024000000000000000000000000000000000000000000000000000000000000000000000000000               0      00000000
0010001300307A0000182600000100000774398850 AGATHA FERNANDA BEATRIX DE SOU                    15052024BRL000000000000000000000000013572                    00000000000000000000000                                                    0          
0010001300308B   100011301243639                                                                                               15052024000000000000000000000000000000000000000000000000000000000000000000000000000               0      00000000
0010001300309A0000182600000010000099820939 ALICE GOMES DA SILVA                              15052024BRL000000000000000000000000013572                    00000000000000000000000                                                    0          
0010001300310B   100014053435676                                                                                               15052024000000000000000000000000000000000000000000000000000000000000000000000000000               0      00000000
0010001300311A0000180330387600000010690635 ANA CLARA TORRES DOS SANTOS                       15052024BRL000000000000000000000000013572                    00000000000000000000000                                                    0          
0010001300312B   100007966705609                                                                                               15052024000000000000000000000000000000000000000000000000000000000000000000000000000               0      00000000
0010001300313A0000182600000100000058440292 ANA FLAVIA DE FARIA                               15052024BRL000000000000000000000000013572                    00000000000000000000000                                                    0          
0010001300314B   100013048631666                                                                                               15052024000000000000000000000000000000000000000000000000000000000000000000000000000               0      00000000
0010001300315A0000183410138200000000565248 ANA FLAVIA FIRMINO MARIANO                        15052024BRL000000000000000000000000013572                    00000000000000000000000                                                    0          
0010001300316B   100011306438675                                                                                               15052024000000000000000000000000000000000000000000000000000000000000000000000000000               0      00000000
0010001300317A0000180330348800000010149565 ANA MARIA DINIZ SOUZA ARAUJO                      15052024BRL000000000000000000000000013572                    00000000000000000000000                                                    0          
0010001300318B   100032640684604                                                                                               15052024000000000000000000000000000000000000000000000000000000000000000000000000000               0      00000000
0010001300319A0000182370294590000000094285 ARIMLUZ DE ALMEIDA SANTOS MACH                    15052024BRL000000000000000000000000013572                    00000000000000000000000                                                    0          
0010001300320B   100012277527688                                                                                               15052024000000000000000000000000000000000000000000000000000000000000000000000000000               0      00000000
0010001300321A0000180770000100000093315791 BLENDA FELICISSIMO FERREIRA MA                    15052024BRL000000000000000000000000013572                    00000000000000000000000                                                    0          
0010001300322B   100013860482670                                                                                               15052024000000000000000000000000000000000000000000000000000000000000000000000000000               0      00000000
0010001300323A0000182370046600000006802184 CLAUDIO PEREIRA DE SOUZA                          15052024BRL000000000000000000000000013572                    00000000000000000000000                                                    0          
0010001300324B   100013491069688                                                                                               15052024000000000000000000000000000000000000000000000000000000000000000000000000000               0      00000000
0010001300325A0000183410133500000000953806 DAPHNY DE OLIVEIRA SILVA                          15052024BRL000000000000000000000000013572                    00000000000000000000000                                                    0          
0010001300326B   100006338835658                                                                                               15052024000000000000000000000000000000000000000000000000000000000000000000000000000               0      00000000
0010001300327A0000182600000100000963838036 DIEGO ALENCAR BARBOSA DA SILVA                    15052024BRL000000000000000000000000013572                    00000000000000000000000                                                    0          
0010001300328B   100008411723666                                                                                               15052024000000000000000000000000000000000000000000000000000000000000000000000000000               0      00000000
0010001300329A0000180770000100000213350580 EDUARDO PEREIRA SILVA                             15052024BRL000000000000000000000000013572                    00000000000000000000000                                                    0          
0010001300330B   100012726563651                                                                                               15052024000000000000000000000000000000000000000000000000000000000000000000000000000               0      00000000
0010001300331A0000183800000100000808683624 ELIANE DE SOUZA SANTOS RAMOS                      15052024BRL000000000000000000000000013572                    00000000000000000000000                                                    0          
0010001300332B   100004508085644                                                                                               15052024000000000000000000000000000000000000000000000000000000000000000000000000000               0      00000000
0010001300333A0000180330347700000010999003 ELIZABETH CRISTINA DE FARIA SI                    15052024BRL000000000000000000000000013572                    00000000000000000000000                                                    0          
0010001300334B   100001259984656                                                                                               15052024000000000000000000000000000000000000000000000000000000000000000000000000000               0      00000000
0010001300335A0000182370213200000005665906 ELOISA DE FATIMA PEREIRA SILVA                    15052024BRL000000000000000000000000013572                    00000000000000000000000                                                    0          
0010001300336B   100000141221623                                                                                               15052024000000000000000000000000000000000000000000000000000000000000000000000000000               0      00000000
0010001300337A0000183230000010084791685187 ESTEFANE LIBOREIRO LOURENCO AR                    15052024BRL000000000000000000000000013572                    00000000000000000000000                                                    0          
0010001300338B   100011778798675                                                                                               15052024000000000000000000000000000000000000000000000000000000000000000000000000000               0      00000000
0010001300339A0000182600000010000050410729 ETHUANY DE ALMEIDA SANTOS                         15052024BRL000000000000000000000000013572                    00000000000000000000000                                                    0          
0010001300340B   100009769661660                                                                                               15052024000000000000000000000000000000000000000000000000000000000000000000000000000               0      00000000
0010001300341A0000180330304900000010105148 FABIO MARCELO ROCHA GOMES                         15052024BRL000000000000000000000000026100                    00000000000000000000000                                                    0          
0010001300342B   100063178729615                                                                                               15052024000000000000000000000000000000000000000000000000000000000000000000000000000               0      00000000
0010001300343A0000182600000100000545877532 GISLENE BARBOSA PEREIRA MARTIN                    15052024BRL000000000000000000000000013050                    00000000000000000000000                                                    0          
0010001300344B   100002679460669                                                                                               15052024000000000000000000000000000000000000000000000000000000000000000000000000000               0      00000000
0010001300345A0000180770000010000204721253 INGRID LACERDA SANTOS                             15052024BRL000000000000000000000000013572                    00000000000000000000000                                                    0          
0010001300346B   100015788328616                                                                                               15052024000000000000000000000000000000000000000000000000000000000000000000000000000               0      00000000
0010001300347A0000180330348800000010588290 IRENE FERREIRA DE ALBERGARIA D                    15052024BRL000000000000000000000000013572                    00000000000000000000000                                                    0          
0010001300348B   100029520070630                                                                                               15052024000000000000000000000000000000000000000000000000000000000000000000000000000               0      00000000
0010001300349A0000182600000010000526519548 JENNIFER DE FREITAS CALDEIRA                      15052024BRL000000000000000000000000013572                    00000000000000000000000                                                    0          
0010001300350B   100012095223659                                                                                               15052024000000000000000000000000000000000000000000000000000000000000000000000000000               0      00000000
0010001300351A0000180770000010000193265311 JULIA CAROLINA SANTANA DINIZ                      15052024BRL000000000000000000000000013572                    00000000000000000000000                                                    0          
0010001300352B   100008771492674                                                                                               15052024000000000000000000000000000000000000000000000000000000000000000000000000000               0      00000000
0010001300353A0000182600000010000593822345 LAURA FERNANDA BATISTA DA SILV                    15052024BRL000000000000000000000000013572                    00000000000000000000000                                                    0          
0010001300354B   100014087636640                                                                                               15052024000000000000000000000000000000000000000000000000000000000000000000000000000               0      00000000
0010001300355A0000180330423700000001037755 LIRIA MARTINS CARNEIRO                            15052024BRL000000000000000000000000013572                    00000000000000000000000                                                    0          
0010001300356B   100000950431605                                                                                               15052024000000000000000000000000000000000000000000000000000000000000000000000000000               0      00000000
0010001300357A0000180770000100000036157481 LUIZ FERNANDO PEREIRA DE SOUZA                    15052024BRL000000000000000000000000013572                    00000000000000000000000                                                    0          
0010001300358B   100012411483686                                                                                               15052024000000000000000000000000000000000000000000000000000000000000000000000000000               0      00000000
0010001300359A0000183410163900000000908431 MARGARIDA NATIVA RESENDE ANRAK                    15052024BRL000000000000000000000000013572                    00000000000000000000000                                                    0          
0010001300360B   100094158207649                                                                                               15052024000000000000000000000000000000000000000000000000000000000000000000000000000               0      00000000
0010001300361A0000180330348800000010762733 MARIA DA GLORIA DE MARQUES                        15052024BRL000000000000000000000000013572                    00000000000000000000000                                                    0          
0010001300362B   100050822624672                                                                                               15052024000000000000000000000000000000000000000000000000000000000000000000000000000               0      00000000
0010001300363A0000180770000100000331796660 MARIA DE FATIMA FARIA FREIRE                      15052024BRL000000000000000000000000013572                    00000000000000000000000                                                    0          
0010001300364B   100065992091653                                                                                               15052024000000000000000000000000000000000000000000000000000000000000000000000000000               0      00000000
0010001300365A0000180330348800000010077769 MONICA GARCIA PONTES                              15052024BRL000000000000000000000000026100                    00000000000000000000000                                                    0          
0010001300366B   100004009556609                                                                                               15052024000000000000000000000000000000000000000000000000000000000000000000000000000               0      00000000
0010001300367A0000180770000100000008550387 NAYARA LAMAS CAMPOS                               15052024BRL000000000000000000000000013572                    00000000000000000000000                                                    0          
0010001300368B   100011427573662                                                                                               15052024000000000000000000000000000000000000000000000000000000000000000000000000000               0      00000000
0010001300369A0000182600000100000503161669 PEDRO HENRIQUE MIRANDA PALHARE                    15052024BRL000000000000000000000000013572                    00000000000000000000000                                                    0          
0010001300370B   100013788315601                                                                                               15052024000000000000000000000000000000000000000000000000000000000000000000000000000               0      00000000
0010001300371A0000180330309700000010907583 RAFAELA FERNANDA RODRIGUES PER                    15052024BRL000000000000000000000000013572                    00000000000000000000000                                                    0          
0010001300372B   100004479199624                                                                                               15052024000000000000000000000000000000000000000000000000000000000000000000000000000               0      00000000
0010001300373A0000180330348800000020087871 SANDY PEREIRA DOS SANTOS                          15052024BRL000000000000000000000000013572                    00000000000000000000000                                                    0          
0010001300374B   100014608659600                                                                                               15052024000000000000000000000000000000000000000000000000000000000000000000000000000               0      00000000
0010001300375A0000180330348800000010673310 ANA ELIZA SOARES FRANCA                           15052024BRL000000000000000000000000013572                    00000000000000000000000                                                    0          
0010001300376B   100007343747630                                                                                               15052024000000000000000000000000000000000000000000000000000000000000000000000000000               0      00000000
0010001300377A0000183410889500000000419482 CAMYLLE VICTORIA DA SILVA BORD                    15052024BRL000000000000000000000000013572                    00000000000000000000000                                                    0          
0010001300378B   100002105797652                                                                                               15052024000000000000000000000000000000000000000000000000000000000000000000000000000               0      00000000
0010001300379A0000180770000100000064188329 CAROLINE SOARES SILVA                             15052024BRL000000000000000000000000013572                    00000000000000000000000                                                    0          
0010001300380B   100010255381611                                                                                               15052024000000000000000000000000000000000000000000000000000000000000000000000000000               0      00000000
0010001300381A0000181040008900005954364474 GLAUCIA MARA DAMASCENO BATISTA                    15052024BRL000000000000000000000000013572                    00000000000000000000000                                                    0          
0010001300382B   100098860500630                                                                                               15052024000000000000000000000000000000000000000000000000000000000000000000000000000               0      00000000
0010001300383A0000180770000100000064663035 JOAO VICTOR DAMASCENO BATISTA                     15052024BRL000000000000000000000000013572                    00000000000000000000000                                                    0          
0010001300384B   100011295035693                                                                                               15052024000000000000000000000000000000000000000000000000000000000000000000000000000               0      00000000
0010001300385A0000182600000100000880938204 JOAO VICTOR SILVEIRA DE SOUZA                     15052024BRL000000000000000000000000013572                    00000000000000000000000                                                    0          
0010001300386B   100014330851601                                                                                               15052024000000000000000000000000000000000000000000000000000000000000000000000000000               0      00000000
0010001300387A0000183410314400000000498098 JULIANA VIANA GONCALVES                           15052024BRL000000000000000000000000013050                    00000000000000000000000                                                    0          
0010001300388B   100001225636620                                                                                               15052024000000000000000000000000000000000000000000000000000000000000000000000000000               0      00000000
0010001300389A0000180770000100000209947128 LAURA MAYA MENDES VIEIRA                          15052024BRL000000000000000000000000013572                    00000000000000000000000                                                    0          
0010001300390B   100015053060606                                                                                               15052024000000000000000000000000000000000000000000000000000000000000000000000000000               0      00000000
0010001300391A0000180330348800000020247972 MARCELO ALBERT DOS SANTOS                         15052024BRL000000000000000000000000013572                    00000000000000000000000                                                    0          
0010001300392B   100003546762614                                                                                               15052024000000000000000000000000000000000000000000000000000000000000000000000000000               0      00000000
0010001300393A0000183410303800000000235002 MARIA BETHANIA DE ARAUJO SILVA                    15052024BRL000000000000000000000000013572                    00000000000000000000000                                                    0          
0010001300394B   100002796169618                                                                                               15052024000000000000000000000000000000000000000000000000000000000000000000000000000               0      00000000
0010001300395A0000182600000100000681219221 MARIA HELENA DE JESUS SOUZA                       15052024BRL000000000000000000000000013572                    00000000000000000000000                                                    0          
0010001300396B   100005106634601                                                                                               15052024000000000000000000000000000000000000000000000000000000000000000000000000000               0      00000000
0010001300397A0000182600000100000015120010 ROSILEIA FERREIRA DA SILVA                        15052024BRL000000000000000000000000013572                    00000000000000000000000                                                    0          
0010001300398B   100009187112663                                                                                               15052024000000000000000000000000000000000000000000000000000000000000000000000000000               0      00000000
0010001300399A0000180330348800000010028105 SIMONE DE CASSIA SILVEIRA                         15052024BRL000000000000000000000000026100                    00000000000000000000000                                                    0          
0010001300400B   100054878810653                                                                                               15052024000000000000000000000000000000000000000000000000000000000000000000000000000               0      00000000
0010001300401A0000180330348800000020262456 STEFANY DE JESUS SILVA                            15052024BRL000000000000000000000000013572                    00000000000000000000000                                                    0          
0010001300402B   100013262526665                                                                                               15052024000000000000000000000000000000000000000000000000000000000000000000000000000               0      00000000
0010001300403A0000180330348800000010980702 TATIANA MAYA DA SILVA VIEIRA                      15052024BRL000000000000000000000000013572                    00000000000000000000000                                                    0          
0010001300404B   100007127646660                                                                                               15052024000000000000000000000000000000000000000000000000000000000000000000000000000               0      00000000
0010001300405A0000180770000100000023459093 THIAGO GABRIEL RIBAS ARAGAO                       15052024BRL000000000000000000000000013572                    00000000000000000000000                                                    0          
0010001300406B   100010128128631                                                                                               15052024000000000000000000000000000000000000000000000000000000000000000000000000000               0      00000000
0010001300407A0000180330348800000010181240 VIENA MARGARETH SILVEIRA                          15052024BRL000000000000000000000000013050                    00000000000000000000000                                                    0          
0010001300408B   100058281053615                                                                                               15052024000000000000000000000000000000000000000000000000000000000000000000000000000               0      00000000
0010001300409A0000181040434400000000232254 CARLA GONCALVES FERREIRA DE SO                    15052024BRL000000000000000000000000013572                    00000000000000000000000                                                    0          
0010001300410B   100001297784600                                                                                               15052024000000000000000000000000000000000000000000000000000000000000000000000000000               0      00000000
0010001300411A0000180330348800000010133670 CELI MARIA FERREIRA D'ALCANTAR                    15052024BRL000000000000000000000000013572                    00000000000000000000000                                                    0          
0010001300412B   100074067516649                                                                                               15052024000000000000000000000000000000000000000000000000000000000000000000000000000               0      00000000
